{
  "contractName": "ScholarLedger",
  "abi": [
    {
      "inputs": [],
      "stateMutability": "nonpayable",
      "type": "constructor"
    },
    {
      "anonymous": false,
      "inputs": [
        {
          "indexed": true,
          "internalType": "address",
          "name": "previousAdmin",
          "type": "address"
        },
        {
          "indexed": true,
          "internalType": "address",
          "name": "newAdmin",
          "type": "address"
        }
      ],
      "name": "AdminTransferred",
      "type": "event"
    },
    {
      "anonymous": false,
      "inputs": [
        {
          "indexed": true,
          "internalType": "address",
          "name": "student",
          "type": "address"
        },
        {
          "indexed": true,
          "internalType": "uint256",
          "name": "index",
          "type": "uint256"
        },
        {
          "indexed": false,
          "internalType": "bytes32",
          "name": "cidHash",
          "type": "bytes32"
        },
        {
          "indexed": false,
          "internalType": "string",
          "name": "title",
          "type": "string"
        }
      ],
      "name": "CredentialIssued",
      "type": "event"
    },
    {
      "anonymous": false,
      "inputs": [
        {
          "indexed": true,
          "internalType": "address",
          "name": "student",
          "type": "address"
        },
        {
          "indexed": true,
          "internalType": "uint256",
          "name": "index",
          "type": "uint256"
        }
      ],
      "name": "CredentialRevoked",
      "type": "event"
    },
    {
      "inputs": [],
      "name": "universityAdmin",
      "outputs": [
        {
          "internalType": "address",
          "name": "",
          "type": "address"
        }
      ],
      "stateMutability": "view",
      "type": "function",
      "constant": true
    },
    {
      "inputs": [
        {
          "internalType": "address",
          "name": "newAdmin",
          "type": "address"
        }
      ],
      "name": "transferAdmin",
      "outputs": [],
      "stateMutability": "nonpayable",
      "type": "function"
    },
    {
      "inputs": [
        {
          "internalType": "address",
          "name": "student",
          "type": "address"
        },
        {
          "internalType": "bytes32",
          "name": "cidHash",
          "type": "bytes32"
        },
        {
          "internalType": "string",
          "name": "title",
          "type": "string"
        }
      ],
      "name": "issueCredential",
      "outputs": [],
      "stateMutability": "nonpayable",
      "type": "function"
    },
    {
      "inputs": [
        {
          "internalType": "address",
          "name": "student",
          "type": "address"
        },
        {
          "internalType": "uint256",
          "name": "index",
          "type": "uint256"
        }
      ],
      "name": "revokeCredential",
      "outputs": [],
      "stateMutability": "nonpayable",
      "type": "function"
    },
    {
      "inputs": [
        {
          "internalType": "address",
          "name": "student",
          "type": "address"
        }
      ],
      "name": "getCredentialCount",
      "outputs": [
        {
          "internalType": "uint256",
          "name": "",
          "type": "uint256"
        }
      ],
      "stateMutability": "view",
      "type": "function",
      "constant": true
    },
    {
      "inputs": [
        {
          "internalType": "address",
          "name": "student",
          "type": "address"
        },
        {
          "internalType": "uint256",
          "name": "index",
          "type": "uint256"
        }
      ],
      "name": "getCredential",
      "outputs": [
        {
          "internalType": "bytes32",
          "name": "cidHash",
          "type": "bytes32"
        },
        {
          "internalType": "string",
          "name": "title",
          "type": "string"
        },
        {
          "internalType": "uint256",
          "name": "issuedOn",
          "type": "uint256"
        },
        {
          "internalType": "bool",
          "name": "revoked",
          "type": "bool"
        },
        {
          "internalType": "address",
          "name": "issuer",
          "type": "address"
        }
      ],
      "stateMutability": "view",
      "type": "function",
      "constant": true
    },
    {
      "inputs": [
        {
          "internalType": "address",
          "name": "student",
          "type": "address"
        },
        {
          "internalType": "bytes32",
          "name": "cidHash",
          "type": "bytes32"
        }
      ],
      "name": "verifyCredential",
      "outputs": [
        {
          "internalType": "bool",
          "name": "",
          "type": "bool"
        }
      ],
      "stateMutability": "view",
      "type": "function",
      "constant": true
    }
  ],
  "bytecode": "0x608060405234801561001057600080fd5b50336000806101000a81548173ffffffffffffffffffffffffffffffffffffffff021916908373ffffffffffffffffffffffffffffffffffffffff160217905550611ae5806100606000396000f3fe608060405234801561001057600080fd5b506004361061007d5760003560e01c806375829def1161005b57806375829def146100fe5780637c4f4e0b1461011a578063acc5bb811461014e578063e09291111461016a5761007d565b80632d405995146100825780635f889e17146100b25780637106b2fc146100e2575b600080fd5b61009c60048036038101906100979190610fcb565b610188565b6040516100a99190611011565b60405180910390f35b6100cc60048036038101906100c79190611062565b6101d4565b6040516100d991906110bd565b60405180910390f35b6100fc60048036038101906100f79190611104565b61040a565b005b61011860048036038101906101139190610fcb565b61068e565b005b610134600480360381019061012f9190611104565b6108d6565b6040516101459594939291906111f2565b60405180910390f35b610168600480360381019061016391906112b1565b610b16565b005b610172610f3f565b60405161017f9190611325565b60405180910390f35b6000600160008373ffffffffffffffffffffffffffffffffffffffff1673ffffffffffffffffffffffffffffffffffffffff168152602001908152602001600020805490509050919050565b600080600160008573ffffffffffffffffffffffffffffffffffffffff1673ffffffffffffffffffffffffffffffffffffffff168152602001908152602001600020805480602002602001604051908101604052809291908181526020016000905b8282101561037f57838290600052602060002090600402016040518060a0016040529081600082015481526020016001820180546102739061136f565b80601f016020809104026020016040519081016040528092919081815260200182805461029f9061136f565b80156102ec5780601f106102c1576101008083540402835291602001916102ec565b820191906000526020600020905b8154815290600101906020018083116102cf57829003601f168201915b50505050508152602001600282015481526020016003820160009054906101000a900460ff161515151581526020016003820160019054906101000a900473ffffffffffffffffffffffffffffffffffffffff1673ffffffffffffffffffffffffffffffffffffffff1673ffffffffffffffffffffffffffffffffffffffff168152505081526020019060010190610236565b50505050905060005b81518110156103fd57838282815181106103a5576103a46113a0565b5b6020026020010151600001511480156103da57508181815181106103cc576103cb6113a0565b5b602002602001015160600151155b156103ea57600192505050610404565b80806103f5906113fe565b915050610388565b5060009150505b92915050565b60008054906101000a900473ffffffffffffffffffffffffffffffffffffffff1673ffffffffffffffffffffffffffffffffffffffff163373ffffffffffffffffffffffffffffffffffffffff1614610498576040517f08c379a000000000000000000000000000000000000000000000000000000000815260040161048f90611492565b60405180910390fd5b600160008373ffffffffffffffffffffffffffffffffffffffff1673ffffffffffffffffffffffffffffffffffffffff16815260200190815260200160002080549050811061051c576040517f08c379a0000000000000000000000000000000000000000000000000000000008152600401610513906114fe565b60405180910390fd5b600160008373ffffffffffffffffffffffffffffffffffffffff1673ffffffffffffffffffffffffffffffffffffffff168152602001908152602001600020818154811061056d5761056c6113a0565b5b906000526020600020906004020160030160009054906101000a900460ff16156105cc576040517f08c379a00000000000000000000000000000000000000000000000000000000081526004016105c39061156a565b60405180910390fd5b60018060008473ffffffffffffffffffffffffffffffffffffffff1673ffffffffffffffffffffffffffffffffffffffff168152602001908152602001600020828154811061061e5761061d6113a0565b5b906000526020600020906004020160030160006101000a81548160ff021916908315150217905550808273ffffffffffffffffffffffffffffffffffffffff167ff2fcadf579f414e0330984b542cd6af76f79cc0213bfd8d53adf88364f1d262160405160405180910390a35050565b60008054906101000a900473ffffffffffffffffffffffffffffffffffffffff1673ffffffffffffffffffffffffffffffffffffffff163373ffffffffffffffffffffffffffffffffffffffff161461071c576040517f08c379a000000000000000000000000000000000000000000000000000000000815260040161071390611492565b60405180910390fd5b600073ffffffffffffffffffffffffffffffffffffffff168173ffffffffffffffffffffffffffffffffffffffff160361078b576040517f08c379a0000000000000000000000000000000000000000000000000000000008152600401610782906115d6565b60405180910390fd5b60008054906101000a900473ffffffffffffffffffffffffffffffffffffffff1673ffffffffffffffffffffffffffffffffffffffff168173ffffffffffffffffffffffffffffffffffffffff1603610819576040517f08c379a000000000000000000000000000000000000000000000000000000000815260040161081090611642565b60405180910390fd5b8073ffffffffffffffffffffffffffffffffffffffff1660008054906101000a900473ffffffffffffffffffffffffffffffffffffffff1673ffffffffffffffffffffffffffffffffffffffff167ff8ccb027dfcd135e000e9d45e6cc2d662578a8825d4c45b5e32e0adf67e79ec660405160405180910390a3806000806101000a81548173ffffffffffffffffffffffffffffffffffffffff021916908373ffffffffffffffffffffffffffffffffffffffff16021790555050565b600060606000806000600160008873ffffffffffffffffffffffffffffffffffffffff1673ffffffffffffffffffffffffffffffffffffffff168152602001908152602001600020805490508610610963576040517f08c379a000000000000000000000000000000000000000000000000000000000815260040161095a906114fe565b60405180910390fd5b6000600160008973ffffffffffffffffffffffffffffffffffffffff1673ffffffffffffffffffffffffffffffffffffffff16815260200190815260200160002087815481106109b6576109b56113a0565b5b90600052602060002090600402016040518060a0016040529081600082015481526020016001820180546109e99061136f565b80601f0160208091040260200160405190810160405280929190818152602001828054610a159061136f565b8015610a625780601f10610a3757610100808354040283529160200191610a62565b820191906000526020600020905b815481529060010190602001808311610a4557829003601f168201915b50505050508152602001600282015481526020016003820160009054906101000a900460ff161515151581526020016003820160019054906101000a900473ffffffffffffffffffffffffffffffffffffffff1673ffffffffffffffffffffffffffffffffffffffff1673ffffffffffffffffffffffffffffffffffffffff168152505090508060000151816020015182604001518360600151846080015195509550955095509550509295509295909350565b60008054906101000a900473ffffffffffffffffffffffffffffffffffffffff1673ffffffffffffffffffffffffffffffffffffffff163373ffffffffffffffffffffffffffffffffffffffff1614610ba4576040517f08c379a0000000000000000000000000000000000000000000000000000000008152600401610b9b90611492565b60405180910390fd5b600073ffffffffffffffffffffffffffffffffffffffff168473ffffffffffffffffffffffffffffffffffffffff1603610c13576040517f08c379a0000000000000000000000000000000000000000000000000000000008152600401610c0a906116ae565b60405180910390fd5b600260008573ffffffffffffffffffffffffffffffffffffffff1673ffffffffffffffffffffffffffffffffffffffff168152602001908152602001600020600084815260200190815260200160002060009054906101000a900460ff1615610cb1576040517f08c379a0000000000000000000000000000000000000000000000000000000008152600401610ca890611740565b60405180910390fd5b600160008573ffffffffffffffffffffffffffffffffffffffff1673ffffffffffffffffffffffffffffffffffffffff1681526020019081526020016000206040518060a0016040528085815260200184848080601f016020809104026020016040519081016040528093929190818152602001838380828437600081840152601f19601f8201169050808301925050505050505081526020014281526020016000151581526020013373ffffffffffffffffffffffffffffffffffffffff168152509080600181540180825580915050600190039060005260206000209060040201600090919091909150600082015181600001556020820151816001019081610dbc919061193b565b506040820151816002015560608201518160030160006101000a81548160ff02191690831515021790555060808201518160030160016101000a81548173ffffffffffffffffffffffffffffffffffffffff021916908373ffffffffffffffffffffffffffffffffffffffff16021790555050506001600260008673ffffffffffffffffffffffffffffffffffffffff1673ffffffffffffffffffffffffffffffffffffffff168152602001908152602001600020600085815260200190815260200160002060006101000a81548160ff02191690831515021790555060018060008673ffffffffffffffffffffffffffffffffffffffff1673ffffffffffffffffffffffffffffffffffffffff16815260200190815260200160002080549050610ee79190611a0d565b8473ffffffffffffffffffffffffffffffffffffffff167f6bdd92f55f48aa541f5ae91b2d82ba91217100c846892d77df5a7e3d5216c8ac858585604051610f3193929190611a7d565b60405180910390a350505050565b60008054906101000a900473ffffffffffffffffffffffffffffffffffffffff1681565b600080fd5b600080fd5b600073ffffffffffffffffffffffffffffffffffffffff82169050919050565b6000610f9882610f6d565b9050919050565b610fa881610f8d565b8114610fb357600080fd5b50565b600081359050610fc581610f9f565b92915050565b600060208284031215610fe157610fe0610f63565b5b6000610fef84828501610fb6565b91505092915050565b6000819050919050565b61100b81610ff8565b82525050565b60006020820190506110266000830184611002565b92915050565b6000819050919050565b61103f8161102c565b811461104a57600080fd5b50565b60008135905061105c81611036565b92915050565b6000806040838503121561107957611078610f63565b5b600061108785828601610fb6565b92505060206110988582860161104d565b9150509250929050565b60008115159050919050565b6110b7816110a2565b82525050565b60006020820190506110d260008301846110ae565b92915050565b6110e181610ff8565b81146110ec57600080fd5b50565b6000813590506110fe816110d8565b92915050565b6000806040838503121561111b5761111a610f63565b5b600061112985828601610fb6565b925050602061113a858286016110ef565b9150509250929050565b61114d8161102c565b82525050565b600081519050919050565b600082825260208201905092915050565b60005b8381101561118d578082015181840152602081019050611172565b60008484015250505050565b6000601f19601f8301169050919050565b60006111b582611153565b6111bf818561115e565b93506111cf81856020860161116f565b6111d881611199565b840191505092915050565b6111ec81610f8d565b82525050565b600060a0820190506112076000830188611144565b818103602083015261121981876111aa565b90506112286040830186611002565b61123560608301856110ae565b61124260808301846111e3565b9695505050505050565b600080fd5b600080fd5b600080fd5b60008083601f8401126112715761127061124c565b5b8235905067ffffffffffffffff81111561128e5761128d611251565b5b6020830191508360018202830111156112aa576112a9611256565b5b9250929050565b600080600080606085870312156112cb576112ca610f63565b5b60006112d987828801610fb6565b94505060206112ea8782880161104d565b935050604085013567ffffffffffffffff81111561130b5761130a610f68565b5b6113178782880161125b565b925092505092959194509250565b600060208201905061133a60008301846111e3565b92915050565b7f4e487b7100000000000000000000000000000000000000000000000000000000600052602260045260246000fd5b6000600282049050600182168061138757607f821691505b60208210810361139a57611399611340565b5b50919050565b7f4e487b7100000000000000000000000000000000000000000000000000000000600052603260045260246000fd5b7f4e487b7100000000000000000000000000000000000000000000000000000000600052601160045260246000fd5b600061140982610ff8565b91507fffffffffffffffffffffffffffffffffffffffffffffffffffffffffffffffff820361143b5761143a6113cf565b5b600182019050919050565b7f4f6e6c792061646d696e20616c6c6f7765640000000000000000000000000000600082015250565b600061147c60128361115e565b915061148782611446565b602082019050919050565b600060208201905081810360008301526114ab8161146f565b9050919050565b7f496e76616c696420696e64657800000000000000000000000000000000000000600082015250565b60006114e8600d8361115e565b91506114f3826114b2565b602082019050919050565b60006020820190508181036000830152611517816114db565b9050919050565b7f416c7265616479207265766f6b65640000000000000000000000000000000000600082015250565b6000611554600f8361115e565b915061155f8261151e565b602082019050919050565b6000602082019050818103600083015261158381611547565b9050919050565b7f4e65772061646d696e2063616e6e6f74206265207a65726f2061646472657373600082015250565b60006115c060208361115e565b91506115cb8261158a565b602082019050919050565b600060208201905081810360008301526115ef816115b3565b9050919050565b7f416c7265616479207468652061646d696e000000000000000000000000000000600082015250565b600061162c60118361115e565b9150611637826115f6565b602082019050919050565b6000602082019050818103600083015261165b8161161f565b9050919050565b7f496e76616c69642073747564656e742061646472657373000000000000000000600082015250565b600061169860178361115e565b91506116a382611662565b602082019050919050565b600060208201905081810360008301526116c78161168b565b9050919050565b7f43726564656e7469616c20616c72656164792069737375656420746f2074686960008201527f732073747564656e740000000000000000000000000000000000000000000000602082015250565b600061172a60298361115e565b9150611735826116ce565b604082019050919050565b600060208201905081810360008301526117598161171d565b9050919050565b7f4e487b7100000000000000000000000000000000000000000000000000000000600052604160045260246000fd5b60008190508160005260206000209050919050565b60006020601f8301049050919050565b600082821b905092915050565b6000600883026117f17fffffffffffffffffffffffffffffffffffffffffffffffffffffffffffffffff826117b4565b6117fb86836117b4565b95508019841693508086168417925050509392505050565b6000819050919050565b600061183861183361182e84610ff8565b611813565b610ff8565b9050919050565b6000819050919050565b6118528361181d565b61186661185e8261183f565b8484546117c1565b825550505050565b600090565b61187b61186e565b611886818484611849565b505050565b5b818110156118aa5761189f600082611873565b60018101905061188c565b5050565b601f8211156118ef576118c08161178f565b6118c9846117a4565b810160208510156118d8578190505b6118ec6118e4856117a4565b83018261188b565b50505b505050565b600082821c905092915050565b6000611912600019846008026118f4565b1980831691505092915050565b600061192b8383611901565b9150826002028217905092915050565b61194482611153565b67ffffffffffffffff81111561195d5761195c611760565b5b611967825461136f565b6119728282856118ae565b600060209050601f8311600181146119a55760008415611993578287015190505b61199d858261191f565b865550611a05565b601f1984166119b38661178f565b60005b828110156119db578489015182556001820191506020850194506020810190506119b6565b868310156119f857848901516119f4601f891682611901565b8355505b6001600288020188555050505b505050505050565b6000611a1882610ff8565b9150611a2383610ff8565b9250828203905081811115611a3b57611a3a6113cf565b5b92915050565b82818337600083830152505050565b6000611a5c838561115e565b9350611a69838584611a41565b611a7283611199565b840190509392505050565b6000604082019050611a926000830186611144565b8181036020830152611aa5818486611a50565b905094935050505056fea2646970667358221220df4f755e3182b27efb6767cd34714cd99d44284e771a9f3e32c8750fe5268b0464736f6c63430008140033",
  "immutableReferences": {},
  "source": "// SPDX-License-Identifier: MIT\npragma solidity ^0.8.20;\n\ncontract ScholarLedger {\n\n    /* ========== ROLES ========== */\n\n    address public universityAdmin;\n\n    modifier onlyAdmin() {\n        require(msg.sender == universityAdmin, \"Only admin allowed\");\n        _;\n    }\n\n    /* ========== DATA STRUCTURES ========== */\n\n    struct Credential {\n        bytes32 cidHash;        // keccak256(IPFS CID)\n        string title;           // e.g. \"BTech Semester 6\"\n        uint256 issuedOn;\n        bool revoked;\n        address issuer;\n    }\n\n    // student address => credentials\n    mapping(address => Credential[]) private studentCredentials;\n\n    // BUG-13: track issued hashes per student to prevent duplicates\n    mapping(address => mapping(bytes32 => bool)) private cidHashIssued;\n\n    /* ========== EVENTS ========== */\n\n    event CredentialIssued(\n        address indexed student,\n        uint256 indexed index,\n        bytes32 cidHash,\n        string title\n    );\n\n    event CredentialRevoked(\n        address indexed student,\n        uint256 indexed index\n    );\n\n    // BUG-15: emit event on admin transfer for auditability\n    event AdminTransferred(\n        address indexed previousAdmin,\n        address indexed newAdmin\n    );\n\n    /* ========== CONSTRUCTOR ========== */\n\n    constructor() {\n        universityAdmin = msg.sender;\n    }\n\n    /* ========== ADMIN MANAGEMENT ========== */\n\n    // BUG-15: allows transferring admin role if wallet is lost or compromised\n    function transferAdmin(address newAdmin) external onlyAdmin {\n        require(newAdmin != address(0), \"New admin cannot be zero address\");\n        require(newAdmin != universityAdmin, \"Already the admin\");\n        emit AdminTransferred(universityAdmin, newAdmin);\n        universityAdmin = newAdmin;\n    }\n\n    /* ========== ADMIN FUNCTIONS ========== */\n\n    function issueCredential(\n        address student,\n        bytes32 cidHash,\n        string calldata title\n    ) external onlyAdmin {\n        require(student != address(0), \"Invalid student address\");\n        // BUG-13: prevent issuing the same document to the same student twice\n        require(!cidHashIssued[student][cidHash], \"Credential already issued to this student\");\n\n        studentCredentials[student].push(\n            Credential({\n                cidHash: cidHash,\n                title: title,\n                issuedOn: block.timestamp,\n                revoked: false,\n                issuer: msg.sender\n            })\n        );\n\n        cidHashIssued[student][cidHash] = true;\n\n        emit CredentialIssued(\n            student,\n            studentCredentials[student].length - 1,\n            cidHash,\n            title\n        );\n    }\n\n    function revokeCredential(\n        address student,\n        uint256 index\n    ) external onlyAdmin {\n        require(index < studentCredentials[student].length, \"Invalid index\");\n        // BUG-14: prevent double-revocation emitting spurious events and wasting gas\n        require(!studentCredentials[student][index].revoked, \"Already revoked\");\n\n        studentCredentials[student][index].revoked = true;\n\n        emit CredentialRevoked(student, index);\n    }\n\n    /* ========== READ FUNCTIONS (FOR UI) ========== */\n\n    function getCredentialCount(address student)\n        external\n        view\n        returns (uint256)\n    {\n        return studentCredentials[student].length;\n    }\n\n    function getCredential(\n        address student,\n        uint256 index\n    )\n        external\n        view\n        returns (\n            bytes32 cidHash,\n            string memory title,\n            uint256 issuedOn,\n            bool revoked,\n            address issuer\n        )\n    {\n        require(index < studentCredentials[student].length, \"Invalid index\");\n\n        Credential memory c = studentCredentials[student][index];\n\n        return (\n            c.cidHash,\n            c.title,\n            c.issuedOn,\n            c.revoked,\n            c.issuer\n        );\n    }\n\n    function verifyCredential(\n        address student,\n        bytes32 cidHash\n    )\n        external\n        view\n        returns (bool)\n    {\n        Credential[] memory creds = studentCredentials[student];\n\n        for (uint256 i = 0; i < creds.length; i++) {\n            if (creds[i].cidHash == cidHash && !creds[i].revoked) {\n                return true;\n            }\n        }\n        return false;\n    }\n}\n",
  "sourcePath": "C:\\Users\\Prince Kumar Singh\\scholar-ledger\\blockchain\\contracts\\ScholarLedger.sol",
  "compiler": {
    "name": "solc",
    "version": "0.8.20+commit.a1b79de6.Emscripten.clang"
  },
  "schemaVersion": "3.4.16",
  "updatedAt": "2026-05-02T23:38:23.674Z",
  "networkType": "ethereum",
  "devdoc": {
    "kind": "dev",
    "methods": {},
    "version": 1
  },
  "userdoc": {
    "kind": "user",
    "methods": {},
    "version": 1
  }
}