{
  "contractName": "ScholarLedger",
  "abi": [
    {
      "inputs": [],
      "stateMutability": "nonpayable",
      "type": "constructor"
    },
    {
      "anonymous": false,
      "inputs": [
        {
          "indexed": true,
          "internalType": "address",
          "name": "previousAdmin",
          "type": "address"
        },
        {
          "indexed": true,
          "internalType": "address",
          "name": "newAdmin",
          "type": "address"
        }
      ],
      "name": "AdminTransferred",
      "type": "event"
    },
    {
      "anonymous": false,
      "inputs": [
        {
          "indexed": true,
          "internalType": "address",
          "name": "student",
          "type": "address"
        },
        {
          "indexed": true,
          "internalType": "uint256",
          "name": "index",
          "type": "uint256"
        },
        {
          "indexed": false,
          "internalType": "bytes32",
          "name": "cidHash",
          "type": "bytes32"
        },
        {
          "indexed": false,
          "internalType": "string",
          "name": "title",
          "type": "string"
        }
      ],
      "name": "CredentialIssued",
      "type": "event"
    },
    {
      "anonymous": false,
      "inputs": [
        {
          "indexed": true,
          "internalType": "address",
          "name": "student",
          "type": "address"
        },
        {
          "indexed": true,
          "internalType": "uint256",
          "name": "index",
          "type": "uint256"
        }
      ],
      "name": "CredentialRevoked",
      "type": "event"
    },
    {
      "inputs": [],
      "name": "universityAdmin",
      "outputs": [
        {
          "internalType": "address",
          "name": "",
          "type": "address"
        }
      ],
      "stateMutability": "view",
      "type": "function",
      "constant": true
    },
    {
      "inputs": [
        {
          "internalType": "address",
          "name": "newAdmin",
          "type": "address"
        }
      ],
      "name": "transferAdmin",
      "outputs": [],
      "stateMutability": "nonpayable",
      "type": "function"
    },
    {
      "inputs": [
        {
          "internalType": "address",
          "name": "student",
          "type": "address"
        },
        {
          "internalType": "bytes32",
          "name": "cidHash",
          "type": "bytes32"
        },
        {
          "internalType": "string",
          "name": "cid",
          "type": "string"
        },
        {
          "internalType": "string",
          "name": "title",
          "type": "string"
        }
      ],
      "name": "issueCredential",
      "outputs": [],
      "stateMutability": "nonpayable",
      "type": "function"
    },
    {
      "inputs": [
        {
          "internalType": "address",
          "name": "student",
          "type": "address"
        },
        {
          "internalType": "uint256",
          "name": "index",
          "type": "uint256"
        }
      ],
      "name": "revokeCredential",
      "outputs": [],
      "stateMutability": "nonpayable",
      "type": "function"
    },
    {
      "inputs": [
        {
          "internalType": "address",
          "name": "student",
          "type": "address"
        }
      ],
      "name": "getCredentialCount",
      "outputs": [
        {
          "internalType": "uint256",
          "name": "",
          "type": "uint256"
        }
      ],
      "stateMutability": "view",
      "type": "function",
      "constant": true
    },
    {
      "inputs": [
        {
          "internalType": "address",
          "name": "student",
          "type": "address"
        },
        {
          "internalType": "uint256",
          "name": "index",
          "type": "uint256"
        }
      ],
      "name": "getCredential",
      "outputs": [
        {
          "internalType": "bytes32",
          "name": "cidHash",
          "type": "bytes32"
        },
        {
          "internalType": "string",
          "name": "cid",
          "type": "string"
        },
        {
          "internalType": "string",
          "name": "title",
          "type": "string"
        },
        {
          "internalType": "uint256",
          "name": "issuedOn",
          "type": "uint256"
        },
        {
          "internalType": "bool",
          "name": "revoked",
          "type": "bool"
        },
        {
          "internalType": "address",
          "name": "issuer",
          "type": "address"
        }
      ],
      "stateMutability": "view",
      "type": "function",
      "constant": true
    },
    {
      "inputs": [
        {
          "internalType": "address",
          "name": "student",
          "type": "address"
        },
        {
          "internalType": "bytes32",
          "name": "cidHash",
          "type": "bytes32"
        }
      ],
      "name": "verifyCredential",
      "outputs": [
        {
          "internalType": "bool",
          "name": "",
          "type": "bool"
        }
      ],
      "stateMutability": "view",
      "type": "function",
      "constant": true
    }
  ],
  "bytecode": "0x608060405234801561001057600080fd5b50336000806101000a81548173ffffffffffffffffffffffffffffffffffffffff021916908373ffffffffffffffffffffffffffffffffffffffff160217905550611cbc806100606000396000f3fe608060405234801561001057600080fd5b506004361061007d5760003560e01c806375829def1161005b57806375829def146100fe5780637c4f4e0b1461011a578063a219550f1461014f578063e09291111461016b5761007d565b80632d405995146100825780635f889e17146100b25780637106b2fc146100e2575b600080fd5b61009c6004803603810190610097919061115a565b610189565b6040516100a991906111a0565b60405180910390f35b6100cc60048036038101906100c791906111f1565b6101d5565b6040516100d9919061124c565b60405180910390f35b6100fc60048036038101906100f79190611293565b61049d565b005b6101186004803603810190610113919061115a565b610721565b005b610134600480360381019061012f9190611293565b610969565b60405161014696959493929190611381565b60405180910390f35b61016960048036038101906101649190611455565b610c43565b005b6101736110ce565b60405161018091906114fc565b60405180910390f35b6000600160008373ffffffffffffffffffffffffffffffffffffffff1673ffffffffffffffffffffffffffffffffffffffff168152602001908152602001600020805490509050919050565b600080600160008573ffffffffffffffffffffffffffffffffffffffff1673ffffffffffffffffffffffffffffffffffffffff168152602001908152602001600020805480602002602001604051908101604052809291908181526020016000905b8282101561041257838290600052602060002090600502016040518060c00160405290816000820154815260200160018201805461027490611546565b80601f01602080910402602001604051908101604052809291908181526020018280546102a090611546565b80156102ed5780601f106102c2576101008083540402835291602001916102ed565b820191906000526020600020905b8154815290600101906020018083116102d057829003601f168201915b5050505050815260200160028201805461030690611546565b80601f016020809104026020016040519081016040528092919081815260200182805461033290611546565b801561037f5780601f106103545761010080835404028352916020019161037f565b820191906000526020600020905b81548152906001019060200180831161036257829003601f168201915b50505050508152602001600382015481526020016004820160009054906101000a900460ff161515151581526020016004820160019054906101000a900473ffffffffffffffffffffffffffffffffffffffff1673ffffffffffffffffffffffffffffffffffffffff1673ffffffffffffffffffffffffffffffffffffffff168152505081526020019060010190610237565b50505050905060005b8151811015610490578382828151811061043857610437611577565b5b60200260200101516000015114801561046d575081818151811061045f5761045e611577565b5b602002602001015160800151155b1561047d57600192505050610497565b8080610488906115d5565b91505061041b565b5060009150505b92915050565b60008054906101000a900473ffffffffffffffffffffffffffffffffffffffff1673ffffffffffffffffffffffffffffffffffffffff163373ffffffffffffffffffffffffffffffffffffffff161461052b576040517f08c379a000000000000000000000000000000000000000000000000000000000815260040161052290611669565b60405180910390fd5b600160008373ffffffffffffffffffffffffffffffffffffffff1673ffffffffffffffffffffffffffffffffffffffff1681526020019081526020016000208054905081106105af576040517f08c379a00000000000000000000000000000000000000000000000000000000081526004016105a6906116d5565b60405180910390fd5b600160008373ffffffffffffffffffffffffffffffffffffffff1673ffffffffffffffffffffffffffffffffffffffff1681526020019081526020016000208181548110610600576105ff611577565b5b906000526020600020906005020160040160009054906101000a900460ff161561065f576040517f08c379a000000000000000000000000000000000000000000000000000000000815260040161065690611741565b60405180910390fd5b60018060008473ffffffffffffffffffffffffffffffffffffffff1673ffffffffffffffffffffffffffffffffffffffff16815260200190815260200160002082815481106106b1576106b0611577565b5b906000526020600020906005020160040160006101000a81548160ff021916908315150217905550808273ffffffffffffffffffffffffffffffffffffffff167ff2fcadf579f414e0330984b542cd6af76f79cc0213bfd8d53adf88364f1d262160405160405180910390a35050565b60008054906101000a900473ffffffffffffffffffffffffffffffffffffffff1673ffffffffffffffffffffffffffffffffffffffff163373ffffffffffffffffffffffffffffffffffffffff16146107af576040517f08c379a00000000000000000000000000000000000000000000000000000000081526004016107a690611669565b60405180910390fd5b600073ffffffffffffffffffffffffffffffffffffffff168173ffffffffffffffffffffffffffffffffffffffff160361081e576040517f08c379a0000000000000000000000000000000000000000000000000000000008152600401610815906117ad565b60405180910390fd5b60008054906101000a900473ffffffffffffffffffffffffffffffffffffffff1673ffffffffffffffffffffffffffffffffffffffff168173ffffffffffffffffffffffffffffffffffffffff16036108ac576040517f08c379a00000000000000000000000000000000000000000000000000000000081526004016108a390611819565b60405180910390fd5b8073ffffffffffffffffffffffffffffffffffffffff1660008054906101000a900473ffffffffffffffffffffffffffffffffffffffff1673ffffffffffffffffffffffffffffffffffffffff167ff8ccb027dfcd135e000e9d45e6cc2d662578a8825d4c45b5e32e0adf67e79ec660405160405180910390a3806000806101000a81548173ffffffffffffffffffffffffffffffffffffffff021916908373ffffffffffffffffffffffffffffffffffffffff16021790555050565b60006060806000806000600160008973ffffffffffffffffffffffffffffffffffffffff1673ffffffffffffffffffffffffffffffffffffffff1681526020019081526020016000208054905087106109f7576040517f08c379a00000000000000000000000000000000000000000000000000000000081526004016109ee906116d5565b60405180910390fd5b6000600160008a73ffffffffffffffffffffffffffffffffffffffff1673ffffffffffffffffffffffffffffffffffffffff1681526020019081526020016000208881548110610a4a57610a49611577565b5b90600052602060002090600502016040518060c001604052908160008201548152602001600182018054610a7d90611546565b80601f0160208091040260200160405190810160405280929190818152602001828054610aa990611546565b8015610af65780601f10610acb57610100808354040283529160200191610af6565b820191906000526020600020905b815481529060010190602001808311610ad957829003601f168201915b50505050508152602001600282018054610b0f90611546565b80601f0160208091040260200160405190810160405280929190818152602001828054610b3b90611546565b8015610b885780601f10610b5d57610100808354040283529160200191610b88565b820191906000526020600020905b815481529060010190602001808311610b6b57829003601f168201915b50505050508152602001600382015481526020016004820160009054906101000a900460ff161515151581526020016004820160019054906101000a900473ffffffffffffffffffffffffffffffffffffffff1673ffffffffffffffffffffffffffffffffffffffff1673ffffffffffffffffffffffffffffffffffffffff16815250509050806000015181602001518260400151836060015184608001518560a00151965096509650965096509650509295509295509295565b60008054906101000a900473ffffffffffffffffffffffffffffffffffffffff1673ffffffffffffffffffffffffffffffffffffffff163373ffffffffffffffffffffffffffffffffffffffff1614610cd1576040517f08c379a0000000000000000000000000000000000000000000000000000000008152600401610cc890611669565b60405180910390fd5b600073ffffffffffffffffffffffffffffffffffffffff168673ffffffffffffffffffffffffffffffffffffffff1603610d40576040517f08c379a0000000000000000000000000000000000000000000000000000000008152600401610d3790611885565b60405180910390fd5b600260008773ffffffffffffffffffffffffffffffffffffffff1673ffffffffffffffffffffffffffffffffffffffff168152602001908152602001600020600086815260200190815260200160002060009054906101000a900460ff1615610dde576040517f08c379a0000000000000000000000000000000000000000000000000000000008152600401610dd590611917565b60405180910390fd5b600160008773ffffffffffffffffffffffffffffffffffffffff1673ffffffffffffffffffffffffffffffffffffffff1681526020019081526020016000206040518060c0016040528087815260200186868080601f016020809104026020016040519081016040528093929190818152602001838380828437600081840152601f19601f82011690508083019250505050505050815260200184848080601f016020809104026020016040519081016040528093929190818152602001838380828437600081840152601f19601f8201169050808301925050505050505081526020014281526020016000151581526020013373ffffffffffffffffffffffffffffffffffffffff168152509080600181540180825580915050600190039060005260206000209060050201600090919091909150600082015181600001556020820151816001019081610f339190611b12565b506040820151816002019081610f499190611b12565b506060820151816003015560808201518160040160006101000a81548160ff02191690831515021790555060a08201518160040160016101000a81548173ffffffffffffffffffffffffffffffffffffffff021916908373ffffffffffffffffffffffffffffffffffffffff16021790555050506001600260008873ffffffffffffffffffffffffffffffffffffffff1673ffffffffffffffffffffffffffffffffffffffff168152602001908152602001600020600087815260200190815260200160002060006101000a81548160ff02191690831515021790555060018060008873ffffffffffffffffffffffffffffffffffffffff1673ffffffffffffffffffffffffffffffffffffffff168152602001908152602001600020805490506110749190611be4565b8673ffffffffffffffffffffffffffffffffffffffff167f6bdd92f55f48aa541f5ae91b2d82ba91217100c846892d77df5a7e3d5216c8ac8785856040516110be93929190611c54565b60405180910390a3505050505050565b60008054906101000a900473ffffffffffffffffffffffffffffffffffffffff1681565b600080fd5b600080fd5b600073ffffffffffffffffffffffffffffffffffffffff82169050919050565b6000611127826110fc565b9050919050565b6111378161111c565b811461114257600080fd5b50565b6000813590506111548161112e565b92915050565b6000602082840312156111705761116f6110f2565b5b600061117e84828501611145565b91505092915050565b6000819050919050565b61119a81611187565b82525050565b60006020820190506111b56000830184611191565b92915050565b6000819050919050565b6111ce816111bb565b81146111d957600080fd5b50565b6000813590506111eb816111c5565b92915050565b60008060408385031215611208576112076110f2565b5b600061121685828601611145565b9250506020611227858286016111dc565b9150509250929050565b60008115159050919050565b61124681611231565b82525050565b6000602082019050611261600083018461123d565b92915050565b61127081611187565b811461127b57600080fd5b50565b60008135905061128d81611267565b92915050565b600080604083850312156112aa576112a96110f2565b5b60006112b885828601611145565b92505060206112c98582860161127e565b9150509250929050565b6112dc816111bb565b82525050565b600081519050919050565b600082825260208201905092915050565b60005b8381101561131c578082015181840152602081019050611301565b60008484015250505050565b6000601f19601f8301169050919050565b6000611344826112e2565b61134e81856112ed565b935061135e8185602086016112fe565b61136781611328565b840191505092915050565b61137b8161111c565b82525050565b600060c08201905061139660008301896112d3565b81810360208301526113a88188611339565b905081810360408301526113bc8187611339565b90506113cb6060830186611191565b6113d8608083018561123d565b6113e560a0830184611372565b979650505050505050565b600080fd5b600080fd5b600080fd5b60008083601f840112611415576114146113f0565b5b8235905067ffffffffffffffff811115611432576114316113f5565b5b60208301915083600182028301111561144e5761144d6113fa565b5b9250929050565b60008060008060008060808789031215611472576114716110f2565b5b600061148089828a01611145565b965050602061149189828a016111dc565b955050604087013567ffffffffffffffff8111156114b2576114b16110f7565b5b6114be89828a016113ff565b9450945050606087013567ffffffffffffffff8111156114e1576114e06110f7565b5b6114ed89828a016113ff565b92509250509295509295509295565b60006020820190506115116000830184611372565b92915050565b7f4e487b7100000000000000000000000000000000000000000000000000000000600052602260045260246000fd5b6000600282049050600182168061155e57607f821691505b60208210810361157157611570611517565b5b50919050565b7f4e487b7100000000000000000000000000000000000000000000000000000000600052603260045260246000fd5b7f4e487b7100000000000000000000000000000000000000000000000000000000600052601160045260246000fd5b60006115e082611187565b91507fffffffffffffffffffffffffffffffffffffffffffffffffffffffffffffffff8203611612576116116115a6565b5b600182019050919050565b7f4f6e6c792061646d696e20616c6c6f7765640000000000000000000000000000600082015250565b60006116536012836112ed565b915061165e8261161d565b602082019050919050565b6000602082019050818103600083015261168281611646565b9050919050565b7f496e76616c696420696e64657800000000000000000000000000000000000000600082015250565b60006116bf600d836112ed565b91506116ca82611689565b602082019050919050565b600060208201905081810360008301526116ee816116b2565b9050919050565b7f416c7265616479207265766f6b65640000000000000000000000000000000000600082015250565b600061172b600f836112ed565b9150611736826116f5565b602082019050919050565b6000602082019050818103600083015261175a8161171e565b9050919050565b7f4e65772061646d696e2063616e6e6f74206265207a65726f2061646472657373600082015250565b60006117976020836112ed565b91506117a282611761565b602082019050919050565b600060208201905081810360008301526117c68161178a565b9050919050565b7f416c7265616479207468652061646d696e000000000000000000000000000000600082015250565b60006118036011836112ed565b915061180e826117cd565b602082019050919050565b60006020820190508181036000830152611832816117f6565b9050919050565b7f496e76616c69642073747564656e742061646472657373000000000000000000600082015250565b600061186f6017836112ed565b915061187a82611839565b602082019050919050565b6000602082019050818103600083015261189e81611862565b9050919050565b7f43726564656e7469616c20616c72656164792069737375656420746f2074686960008201527f732073747564656e740000000000000000000000000000000000000000000000602082015250565b60006119016029836112ed565b915061190c826118a5565b604082019050919050565b60006020820190508181036000830152611930816118f4565b9050919050565b7f4e487b7100000000000000000000000000000000000000000000000000000000600052604160045260246000fd5b60008190508160005260206000209050919050565b60006020601f8301049050919050565b600082821b905092915050565b6000600883026119c87fffffffffffffffffffffffffffffffffffffffffffffffffffffffffffffffff8261198b565b6119d2868361198b565b95508019841693508086168417925050509392505050565b6000819050919050565b6000611a0f611a0a611a0584611187565b6119ea565b611187565b9050919050565b6000819050919050565b611a29836119f4565b611a3d611a3582611a16565b848454611998565b825550505050565b600090565b611a52611a45565b611a5d818484611a20565b505050565b5b81811015611a8157611a76600082611a4a565b600181019050611a63565b5050565b601f821115611ac657611a9781611966565b611aa08461197b565b81016020851015611aaf578190505b611ac3611abb8561197b565b830182611a62565b50505b505050565b600082821c905092915050565b6000611ae960001984600802611acb565b1980831691505092915050565b6000611b028383611ad8565b9150826002028217905092915050565b611b1b826112e2565b67ffffffffffffffff811115611b3457611b33611937565b5b611b3e8254611546565b611b49828285611a85565b600060209050601f831160018114611b7c5760008415611b6a578287015190505b611b748582611af6565b865550611bdc565b601f198416611b8a86611966565b60005b82811015611bb257848901518255600182019150602085019450602081019050611b8d565b86831015611bcf5784890151611bcb601f891682611ad8565b8355505b6001600288020188555050505b505050505050565b6000611bef82611187565b9150611bfa83611187565b9250828203905081811115611c1257611c116115a6565b5b92915050565b82818337600083830152505050565b6000611c3383856112ed565b9350611c40838584611c18565b611c4983611328565b840190509392505050565b6000604082019050611c6960008301866112d3565b8181036020830152611c7c818486611c27565b905094935050505056fea2646970667358221220e39020d93fc7ea8c9c9cee6e03c98435635e5f49e791578427b778fc388d803464736f6c63430008140033",
  "immutableReferences": {},
  "source": "// SPDX-License-Identifier: MIT\npragma solidity ^0.8.20;\n\ncontract ScholarLedger {\n\n    /* ========== ROLES ========== */\n\n    address public universityAdmin;\n\n    modifier onlyAdmin() {\n        require(msg.sender == universityAdmin, \"Only admin allowed\");\n        _;\n    }\n\n    /* ========== DATA STRUCTURES ========== */\n\n    struct Credential {\n        bytes32 cidHash;        // keccak256(IPFS CID) — used for cryptographic verification\n        string cid;             // original IPFS CID — used for document retrieval & display\n        string title;           // e.g. \"BTech Semester 6\"\n        uint256 issuedOn;\n        bool revoked;\n        address issuer;\n    }\n\n    // student address => credentials\n    mapping(address => Credential[]) private studentCredentials;\n\n    // Track issued hashes per student to prevent duplicates\n    mapping(address => mapping(bytes32 => bool)) private cidHashIssued;\n\n    /* ========== EVENTS ========== */\n\n    event CredentialIssued(\n        address indexed student,\n        uint256 indexed index,\n        bytes32 cidHash,\n        string title\n    );\n\n    event CredentialRevoked(\n        address indexed student,\n        uint256 indexed index\n    );\n\n    event AdminTransferred(\n        address indexed previousAdmin,\n        address indexed newAdmin\n    );\n\n    /* ========== CONSTRUCTOR ========== */\n\n    constructor() {\n        universityAdmin = msg.sender;\n    }\n\n    /* ========== ADMIN MANAGEMENT ========== */\n\n    function transferAdmin(address newAdmin) external onlyAdmin {\n        require(newAdmin != address(0), \"New admin cannot be zero address\");\n        require(newAdmin != universityAdmin, \"Already the admin\");\n        emit AdminTransferred(universityAdmin, newAdmin);\n        universityAdmin = newAdmin;\n    }\n\n    /* ========== ADMIN FUNCTIONS ========== */\n\n    function issueCredential(\n        address student,\n        bytes32 cidHash,\n        string calldata cid,\n        string calldata title\n    ) external onlyAdmin {\n        require(student != address(0), \"Invalid student address\");\n        require(!cidHashIssued[student][cidHash], \"Credential already issued to this student\");\n\n        studentCredentials[student].push(\n            Credential({\n                cidHash: cidHash,\n                cid: cid,\n                title: title,\n                issuedOn: block.timestamp,\n                revoked: false,\n                issuer: msg.sender\n            })\n        );\n\n        cidHashIssued[student][cidHash] = true;\n\n        emit CredentialIssued(\n            student,\n            studentCredentials[student].length - 1,\n            cidHash,\n            title\n        );\n    }\n\n    function revokeCredential(\n        address student,\n        uint256 index\n    ) external onlyAdmin {\n        require(index < studentCredentials[student].length, \"Invalid index\");\n        require(!studentCredentials[student][index].revoked, \"Already revoked\");\n\n        studentCredentials[student][index].revoked = true;\n\n        emit CredentialRevoked(student, index);\n    }\n\n    /* ========== READ FUNCTIONS (FOR UI) ========== */\n\n    function getCredentialCount(address student)\n        external\n        view\n        returns (uint256)\n    {\n        return studentCredentials[student].length;\n    }\n\n    function getCredential(\n        address student,\n        uint256 index\n    )\n        external\n        view\n        returns (\n            bytes32 cidHash,\n            string memory cid,\n            string memory title,\n            uint256 issuedOn,\n            bool revoked,\n            address issuer\n        )\n    {\n        require(index < studentCredentials[student].length, \"Invalid index\");\n\n        Credential memory c = studentCredentials[student][index];\n\n        return (\n            c.cidHash,\n            c.cid,\n            c.title,\n            c.issuedOn,\n            c.revoked,\n            c.issuer\n        );\n    }\n\n    function verifyCredential(\n        address student,\n        bytes32 cidHash\n    )\n        external\n        view\n        returns (bool)\n    {\n        Credential[] memory creds = studentCredentials[student];\n\n        for (uint256 i = 0; i < creds.length; i++) {\n            if (creds[i].cidHash == cidHash && !creds[i].revoked) {\n                return true;\n            }\n        }\n        return false;\n    }\n}\n",
  "sourcePath": "C:\\Users\\Prince Kumar Singh\\scholar-ledger\\blockchain\\contracts\\ScholarLedger.sol",
  "compiler": {
    "name": "solc",
    "version": "0.8.20+commit.a1b79de6.Emscripten.clang"
  },
  "schemaVersion": "3.4.16",
  "updatedAt": "2026-05-03T11:50:14.813Z",
  "networkType": "ethereum",
  "devdoc": {
    "kind": "dev",
    "methods": {},
    "version": 1
  },
  "userdoc": {
    "kind": "user",
    "methods": {},
    "version": 1
  }
}